:020000040800F2
:100000000000052081510008812A0008832A000889
:10001000852A0008872A0008892A000800000000B5
:100020000000000000000000000000008B2A000813
:100030008D2A0008000000008F2A0008912A00087D
:10004000D1510008D1510008D1510008D151000808
:10005000D1510008D1510008D1510008D1510008F8
:10006000D1510008D1510008D1510008992A000847
:10007000D1510008D1510008D1510008D1510008D8
:10008000D1510008D1510008D1510008D1510008C8
:10009000D1510008D1510008D1510008D1510008B8
:1000A000D1510008D1510008D1510008D1510008A8
:1000B000D1510008D1510008D1510008D151000898
:1000C000D1510008D1510008D1510008D151000888
:1000D000D1510008D1510008D1510008D151000878
:1000E000D1510008D1510008D1510008D151000868
:1000F000D1510008D1510008D1510008A92A0008A7
:10010000D1510008D1510008D1510008D151000847
:10011000D1510008B92A0008D1510008D151000876
:10012000D1510008D1510008C92A0008D151000856
:10013000D1510008D1510008D1510008D151000817
:10014000D1510008D1510008D1510008D151000807
:10015000D1510008D1510008D1510008D1510008F7
:10016000D1510008D1510008D1510008D1510008E7
:10017000D1510008D151000800000000000000002B
:10018000D1510008D1510008D1510008D1510008C7
:10019000D1510008D151000800000000D1510008E1
:1001A000D1510008D15100080000000000000000FB
:1001B000D15100080000000000000000D1510008EB
:1001C000D1510008D1510008D1510008D151000887
:0801D000D1510008D1510008D3
:1001E00001F0FF01102A2BDB10F0070F08D010F8E8
:1001F000013B013A8B422DD010F0070F42B3F6D1EC
:10020000F0B441EA012141EA014122F007047FF004
:1002100000070023F0E80256083C85EA010586EA5B
:10022000010685FA47F5A3FA87F586FA47F6A5FA97
:1002300087F68EB9EED1F0BC01F0FF0102F00702A3
:1002400032B110F8013B013A83EA010313B1F8D14E
:100250000020704701387047002D06BF354603382F
:10026000073815F0010F07D1013015F4807F02BF68
:10027000013015F4C03F0130F0BC0138704700BFB9
:1002800081F0004102E000BF83F0004330B54FEA47
:1002900041044FEA430594EA050F08BF90EA020FB4
:1002A0001FBF54EA000C55EA020C7FEA645C7FEA47
:1002B000655C00F0E2804FEA5454D4EB5555B8BF6A
:1002C0006D420CDD2C4480EA020281EA030382EADB
:1002D000000083EA010180EA020281EA0303362D6D
:1002E00088BF30BD11F0004F4FEA01314FF4801C40
:1002F0004CEA113102D0404261EB410113F0004F52
:100300004FEA03334CEA133302D0524263EB430308
:1003100094EA050F00F0A780A4F10104D5F1200EA6
:100320000DDB02FA0EFC22FA05F2801841F1000101
:1003300003FA0EF2801843FA05F359410EE0A5F1D5
:1003400020050EF1200E012A03FA0EFC28BF4CF006
:10035000020C43FA05F3C01851EBE37101F00045BC
:1003600007D54FF0000EDCF1000C7EEB00006EEBC9
:100370000101B1F5801F1BD3B1F5001F0CD3490853
:100380005FEA30004FEA3C0C04F101044FEA4452AA
:1003900012F5800F80F09A80BCF1004F08BF5FEA31
:1003A000500C50F1000041EB045141EA050130BD11
:1003B0005FEA4C0C404141EB0101013C28BFB1F523
:1003C000801FE9D291F0000F04BF01460020B1FA6E
:1003D00081F308BF2033A3F10B03B3F120020CDA41
:1003E0000C3208DD02F1140CC2F10C0201FA0CF01F
:1003F00021FA02F10CE002F11402D8BFC2F1200C84
:1004000001FA02F120FA0CFCDCBF41EA0C01904039
:10041000E41AA2BF01EB0451294330BD6FEA040482
:100420001F3C1CDA0C340EDC04F11404C4F120026D
:1004300020FA04F001FA02F340EA030021FA04F37F
:1004400045EA030130BDC4F10C04C4F1200220FAD6
:1004500002F001FA04F340EA0300294630BD21FA14
:1004600004F0294630BD94F0000F83F4801306BFDA
:1004700081F480110134013D4EE77FEA645C18BFCE
:100480007FEA655C29D094EA050F08BF90EA020F65
:1004900005D054EA000C04BF1946104630BD91EA5D
:1004A000030F1EBF0021002030BD5FEA545C05D160
:1004B0004000494128BF41F0004130BD14F580049F
:1004C0003CBF01F5801130BD01F0004545F0FE4113
:1004D00041F470014FF0000030BD7FEA645C1ABF48
:1004E000194610467FEA655C1CBF0B46024650EA7F
:1004F000013406BF52EA033591EA030F41F40021AB
:1005000030BD00BF90F0000F04BF0021704730B530
:100510004FF4806404F132044FF000054FF0000105
:1005200050E700BF90F0000F04BF0021704730B5C6
:100530004FF4806404F1320410F0004548BF40429B
:100540004FF000013EE700BF42004FEAE2014FEAF0
:1005500031014FEA02701FBF12F07F4393F07F4FCB
:1005600081F06051704732F07F4208BF704793F0CE
:100570007F4F04BF41F40021704730B54FF46074E1
:1005800001F0004521F000411CE700BF50EA0102E4
:1005900008BF704730B54FF000050AE050EA01028D
:1005A00008BF704730B511F0004502D5404261EBFD
:1005B00041014FF4806404F132045FEA915C3FF43E
:1005C000D8AE4FF003025FEADC0C18BF03325FEADB
:1005D000DC0C18BF033202EBDC02C2F1200300FA8C
:1005E00003FC20FA02F001FA03FE40EA0E0021FAB1
:1005F00002F11444BDE600BF70B54FF0FF0C4CF49F
:10060000E06C1CEA11541DBF1CEA135594EA0C0F50
:1006100095EA0C0F00F0DEF82C4481EA030621EA8B
:100620004C5123EA4C5350EA013518BF52EA0335C6
:1006300041F4801143F4801338D0A0FB02CE4FF078
:100640000005E1FB02E506F00042E0FB03E54FF0A8
:100650000006E1FB03569CF0000F18BF4EF0010EA0
:10066000A4F1FF04B6F5007F64F5407404D25FEA9C
:100670004E0E6D4146EB060642EAC62141EA55514F
:100680004FEAC52040EA5E504FEACE2EB4F1FD0C91
:1006900088BFBCF5E06F1ED8BEF1004F08BF5FEA0F
:1006A000500E50F1000041EB045170BD06F00046C1
:1006B00046EA010140EA020081EA0301B4EB5C046E
:1006C000C2BFD4EB0C0541EA045170BD41F4801166
:1006D0004FF0000E013C00F3AB8014F1360FDEBF8B
:1006E000002001F0004170BDC4F10004203C35DA67
:1006F0000C341BDC04F11404C4F1200500FA05F3EA
:1007000020FA04F001FA05F240EA020001F000428A
:1007100021F0004110EBD37021FA04F642EB060100
:100720005EEA430E08BF20EAD37070BDC4F10C042A
:10073000C4F1200500FA04F320FA05F001FA04F2EE
:1007400040EA020001F0004110EBD37041F10001DA
:100750005EEA430E08BF20EAD37070BDC4F12005E5
:1007600000FA05F24EEA020E20FA04F301FA05F24D
:1007700043EA020321FA04F001F0004121FA04F2F5
:1007800020EA020000EBD3705EEA430E08BF20EAC5
:10079000D37070BD94F0000F0FD101F000464000FF
:1007A00041EB010111F4801F08BF013CF7D041EA81
:1007B000060195F0000F18BF704703F00046520085
:1007C00043EB030313F4801F08BF013DF7D043EA56
:1007D0000603704794EA0C0F0CEA135518BF95EA0C
:1007E0000C0F0CD050EA410618BF52EA4306D1D193
:1007F00081EA030101F000414FF0000070BD50EAB2
:10080000410606BF1046194652EA430619D094EA3B
:100810000C0F02D150EA013613D195EA0C0F05D125
:1008200052EA03361CBF104619460AD181EA030179
:1008300001F0004141F0FE4141F470014FF0000031
:1008400070BD41F0FE4141F4780170BD70B54FF0CC
:10085000FF0C4CF4E06C1CEA11541DBF1CEA13554C
:1008600094EA0C0F95EA0C0F00F0A7F8A4EB05042E
:1008700081EA030E52EA03354FEA013100F0888025
:100880004FEA03334FF0805545EA131343EA1263EE
:100890004FEA022245EA111545EA10654FEA0026A3
:1008A0000EF000419D4208BF964244F1FD0404F55C
:1008B000407402D25B084FEA3202B61A65EB0305B8
:1008C0005B084FEA32024FF480104FF4002CB6EB75
:1008D000020E75EB030E22BFB61A754640EA0C00F5
:1008E0005B084FEA3202B6EB020E75EB030E22BF35
:1008F000B61A754640EA5C005B084FEA3202B6EB76
:10090000020E75EB030E22BFB61A754640EA9C0034
:100910005B084FEA3202B6EB020E75EB030E22BF04
:10092000B61A754640EADC0055EA060E18D04FEAC2
:10093000051545EA16754FEA06164FEAC30343EA62
:1009400052734FEAC2025FEA1C1CC0D111F4801F2F
:100950000BD141EA00014FF000004FF0004CB6E728
:1009600011F4801F04BF01430020B4F1FD0C88BFC7
:10097000BCF5E06F3FF6AFAEB5EB030C04BFB6EBD2
:10098000020C5FEA500C50F1000041EB045170BDC5
:100990000EF0004E4EEA113114EB5C04C2BFD4EBF2
:1009A0000C0541EA045170BD41F480114FF0000E76
:1009B000013C90E645EA060E8DE60CEA135594EAF2
:1009C0000C0F08BF95EA0C0F3FF43BAF94EA0C0FF5
:1009D0000AD150EA01347FF434AF95EA0C0F7FF46A
:1009E00025AF104619462CE795EA0C0F06D152EABE
:1009F00003353FF4FDAE1046194622E750EA4106A2
:100A000018BF52EA43067FF4C5AE50EA41047FF4B2
:100A10000DAF52EA43057FF4EBAE12E74FF0FF3C17
:100A200006E000BF4FF0010C02E000BF4FF0010CE8
:100A30004DF804CD4FEA410C7FEA6C5C4FEA430C61
:100A400018BF7FEA6C5C1BD001B050EA410C0CBFB0
:100A500052EA430C91EA030F02BF90EA020F002012
:100A6000704710F1000F91EA030F58BF994208BF79
:100A700090422CBFD8176FEAE37040F00100704736
:100A80004FEA410C7FEA6C5C02D150EA013C07D18D
:100A90004FEA430C7FEA6C5CD6D152EA033CD3D0D8
:100AA0005DF8040B704700BF8446104662468C46D2
:100AB0001946634600E000BF01B5FFF7B7FF002805
:100AC00048BF10F1000F01BD4DF808EDFFF7F4FF2E
:100AD0000CBF012000205DF808FB00BF4DF808EDB9
:100AE000FFF7EAFF34BF012000205DF808FB00BFDC
:100AF0004DF808EDFFF7E0FF94BF012000205DF8FE
:100B000008FB00BF4DF808EDFFF7CEFF94BF0120B2
:100B100000205DF808FB00BF4DF808EDFFF7C4FFAB
:100B200034BF012000205DF808FB00BF4FEA4102FE
:100B300012F5001215D211D56FF47873B3EB62522F
:100B400012D94FEAC12343F0004343EA505311F056
:100B5000004F23FA02F018BF404270474FF00000E8
:100B6000704750EA013005D111F0004008BF6FF026
:100B7000004070474FF00000704700BF4A0011D29C
:100B800012F5001211D20DD56FF47873B3EB6252E7
:100B90000ED44FEAC12343F0004343EA505323FAF3
:100BA00002F070474FF00000704750EA013002D168
:100BB0004FF0FF3070474FF0000070474FEA41029E
:100BC000B2F1E04324BFB3F5001CDCF1FE5C0DD9AB
:100BD00001F0004C4FEAC0024CEA5070B2F1004FF5
:100BE00040EB830008BF20F00100704711F0804FF8
:100BF00021D113F13872BCBF01F00040704741F4BD
:100C000080114FEA5252C2F11802C2F1200C10FAC0
:100C10000CF320FA02F018BF40F001004FEAC123A4
:100C20004FEAD32303FA0CFC40EA0C0023FA02F348
:100C30004FEA4303CCE77FEA625307D150EA01331E
:100C40001EBF4FF0FE4040F44000704701F00040EE
:100C500040F0FE4040F40000704700BF53B94AB96D
:100C6000002908BF00281CBF4FF0FF314FF0FF30B4
:100C700000F00CB8ADF1080C6DE904CE09F03AFCB7
:100C8000DDF804E0DDE9022304B07047704700BFDF
:100C900010B5054C237833B9044B13B10448AFF3B6
:100CA00000800123237010BDFC0100200000000023
:100CB000B0A7000808B5034B1BB103490348AFF3C5
:100CC000008008BD0000000000020020B0A700085E
:100CD00010B5044682798188006800F071FF012315
:100CE000637310BD38B504468188006802F09CFB30
:100CF000054601F0A9FF15B9637B83B10DB1637B94
:100D0000FBB901F0A1FF637B43B13DB1A368C01AF9
:100D1000C72803D9A37B0BB90123A37338BD01F006
:100D200093FFA368C01A6428E8D901236373A37BE7
:100D30000BB9012323740023A37301F085FFA06086
:100D4000DCE701F081FFA368C01A6428D9D9002329
:100D5000637301F079FFA060D3E70346007C00B91C
:100D6000704700221A74FBE708B500F055FC08BD77
:100D700008B500F0E7FB08BD2DE9F04F85B005464A
:100D80000E4617469B46BDF83880121A002AB8BF97
:100D900052420FFA82F95B1A002BB8BF5B420FFA7E
:100DA00083FA874211DD01210291B34511DD012152
:100DB000039192B200929BB20193D41A24B242469C
:100DC00059463846FFF7D4FF21E04FF0FF3102913A
:100DD000EBE74FF0FF310391EBE7424631462846FF
:100DE000FFF7C6FFA2B253001BB2CAF100018B424B
:100DF00005DD0199521A14B2029A15442DB2994593
:100E000005DD009B1C4424B2039B1E4436B2BD4248
:100E1000E3D15E45E1D105B0BDE8F08F2DE9F04F9B
:100E200085B08046894614460392BDF838A0BDF8C7
:100E30003C1001919DF840701946104600F036FABA
:100E4000064600F03DFA0546304600F03BFA0290B7
:100E5000023664B34FF0000B71E004EB08000BEBBB
:100E60000901524609B200B2FFF782FF0134E4B231
:100E7000AC4213D216F80B30C4F10702134113F041
:100E8000010FEAD1002FF1D104EB08000BEB0901AF
:100E9000019A09B200B2FFF76BFFE7E70BF1010B14
:100EA0005FFA8BFB029B9B454ED2039CE0E7DDF88B
:100EB0000CB0F7E716F81B30C4F10702134113F02A
:100EC000010F0AD1E7B904EB08000BEB0901019A05
:100ED00009B200B2FFF74CFF12E004EB08000BEB85
:100EE0000901524609B200B2FFF742FF08E004EBE5
:100EF00008000BEB0901524609B200B2FFF738FFB8
:100F00000134E4B2AC4216D2072CD3D906EB4B0322
:100F10005B78C4F10F02134113F0010FE7D1002FEA
:100F2000EED104EB08000BEB0901019A09B200B203
:100F3000FFF71EFFE4E70BF1010B5FFA8BFB029B4F
:100F40009B4501D20024DDE7284605B0BDE8F08FBF
:100F500010B582B0BDF81040009400F013FB02B051
:100F600010BD000000B583B00090064BB3F900300F
:100F7000054AB2F9002000210846FFF7E9FF03B057
:100F80005DF804FB180200201A02002008B50020BA
:100F9000FFF7E8FF08BD000008B500F063FB00F0B4
:100FA0005DFB044B188000F05BFB034B1880FFF7E0
:100FB000EDFF08BD1A0200201802002010B582B013
:100FC0009E46BDF81040904207D09446994219D0F1
:100FD0000094FFF7D1FE02B010BD994209DDCB1A93
:100FE0009BB2013300941BB201227146FFF7B0FFA0
:100FF000F1E75B1A9BB2013300941BB20122FFF7A9
:10100000A7FFE8E7904209DD821A92B2013200940C
:10101000012312B26046FFF79BFFDCE7121A92B27F
:1010200001320094012312B2FFF792FFD3E72DE9BA
:10103000F04F85B0029003919B4617465200C2F1D3
:1010400001064FF0000A0FE0012B34DC0AF1010A1F
:101050004FEA4A0301331E4406E00AF1010AAAEBF3
:10106000070306EB4306013F002F31DB1FFA8AF925
:10107000BDF8085009EB050000B2BDF80C40BBB24A
:10108000A4EB03080FFA88F81C4424B2CDF800B092
:10109000234602464146FFF791FFA5EB090000B247
:1010A000CDF800B0234602464146FFF787FFBB1943
:1010B0005B00002EC8DBA6EB0A035B00002ECCDD34
:1010C000012BCADD013F7B00C3F101031E44CBE7C6
:1010D00005B0BDE8F08F10B584B00124029400245F
:1010E0000194BDF818400094FFF798FE04B010BDBD
:1010F00010B584B000240294BDF81C400194BDF8E2
:1011000018400094FFF78AFE04B010BD2DE9F04F9F
:1011100085B003900E4690461C46BDF838A0BDF839
:101120003CB09DF8409005460820002710E006449A
:1011300036B20CE0CDF804B0CDF800A042463146FE
:101140002846FFF7D5FF284405B214E0039D01347B
:10115000D7B923780A2BEAD00D2BF7D093B1B9F188
:10116000000FE7D0CDF800A0424631462846FFF7F1
:10117000B2FF284405B22178404600F097F800F00D
:10118000A1F8E4E70127E2E7284605B0BDE8F08FC3
:1011900010B584B00124029400240194BDF81840D5
:1011A0000094FFF7B3FF04B010BD000000EB001087
:1011B000014B03EB40007047D0A70008392816D830
:1011C000202822D3A0F12003192B0ED8DFE803F04A
:1011D0001F0D0D0D0D1B0D0D0D0D0D0D0D0D190D13
:1011E0001313131313131313131300207047B02892
:1011F0000FD10948704730383222084B02FB0030CB
:1012000070470748704707487047002070470648F6
:1012100070470020704700BF14CA0008B0CA000819
:1012200048CA0008D0C900087CCA0008392816D866
:10123000202823D3A0F12003192B0ED8DFE803F0D8
:10124000200D0D0D0D1C0D0D0D0D0D0D0D0D1A0D9F
:101250001313131313131313131300207047B02821
:1012600010D109487047303800EB4010074B03EBB2
:101270004000704706487047064870470020704796
:101280000548704700207047E8CC0008B4CD00083E
:101290002CCD0008A4CC000870CD000800EB800025
:1012A000014B03EB4000704748D0000808B5034BE2
:1012B00053F820300846984708BD00BF48DA0008B8
:1012C00000787047407870470288130243EA12237F
:1012D0000380704700B583B0002100914FF4614353
:1012E000034A044801F076FA03B05DF804FB00BF3E
:1012F0001CE300200030014070B588B0002101914E
:101300001B4B1A6B42F001021A631A6B02F00102C6
:101310000192019A02911A6B42F002021A631B6B4E
:1013200003F002030293029B022306930126049614
:10133000104D284600F0E6FB0824039403A9284634
:1013400001F082FF32462146284602F074F805F586
:101350000065284600F0D6FB039403A9284601F057
:1013600073FF32462146284602F065F808B070BD8A
:10137000003802400000024000B583B08DF807003D
:1013800000220821064802F056F801230DF1070259
:101390000021044801F00AFA03B05DF804FB00BF25
:1013A000000802400030014000B583B08DF807000E
:1013B00001220821064802F03EF801230DF1070240
:1013C0000021044801F0F2F903B05DF804FB00BF0E
:1013D0000008024000300140884201D8F02900D9BD
:1013E000704738B50A4B1D78284484B20D44ADB21D
:1013F0002A20FFF7C1FF200AFFF7D6FFE0B2FFF770
:10140000D3FF280AFFF7D0FFE8B2FFF7CDFF38BDC2
:101410001DC40120884201D8F02900D9704738B591
:101420000A4B1D78284484B20D44ADB22B20FFF73F
:10143000A3FF200AFFF7B8FFE0B2FFF7B5FF280AC5
:10144000FFF7B2FFE8B2FFF7AFFF38BD1CC40120C1
:10145000F8B50F4616461D4600F007043620FFF784
:101460008BFF072C06D8DFE804F0050410121416D1
:10147000181A402407B1102406B104240DB144F019
:1014800008042046FFF790FFF8BD8024F2E7C0244F
:10149000F0E72024EEE76024ECE7A024EAE7E0246C
:1014A000E8E710B504463A20FFF766FF04F077003E
:1014B000FFF77AFF10BD000010B5094C002208218B
:1014C000204601F0B8FF0A2001F0C4FB01220821E8
:1014D000204601F0B0FF962001F0BCFB10BD00BF1C
:1014E0000000024008B538B11020FFF745FF4FF467
:1014F000FA7001F0AFFB08BD1120FFF73DFFF6E7E2
:1015000008B518B12120FFF737FF08BD2020FFF7ED
:1015100033FFFAE708B518B12920FFF72DFF08BD02
:101520002820FFF729FFFAE738B50C461D4611467B
:10153000FFF752FF29462046FFF76CFF2C20FFF7EC
:101540001BFF38BD30B583B0ADF8062083B2EF2B5A
:1015500005D805460C46002901DBEF2901DD03B063
:1015600030BD0DF10600FFF7AFFEC4EB041405EB30
:101570000415034BBDF8062023F81520EFE700BF44
:101580001C020020F8B5141E43DD1F46002B40DD71
:10159000EF283EDCEF293CDC002819DB00291BDBAF
:1015A000002C36DD002F34DD05462318F02B02DD3C
:1015B000C0F1F00004B20E467B18F02B02DDC1F141
:1015C000F0010FB206A8FFF77FFE4FF0000E1BE000
:1015D000204404B20020E1E739440FB20021DFE7E4
:1015E00006EB0C01C1EB011105EB01111944094A8D
:1015F000BDF8180022F8110001339BB2A342EFDBC3
:101600000EF1010E1FFA8EFEF446BE4501DA0023EC
:10161000F4E7F8BD1C02002000B583B0EF231A46A2
:1016200000210846FFF780FF01220821074801F04A
:1016300002FF074B00934FF46143064A002106481E
:1016400001F0C8F803B05DF804FB00BF00080240D9
:10165000D51200081C02002000300140F020704725
:10166000F020704710B582B00024FD4B1C70FD4B7C
:101670001C70FFF741FE0121FB4801F001F8FFF764
:101680001BFFEF20FFF778FEEB20FFF775FE14201D
:10169000FFF78AFEFE20FFF76FFEEF20FFF76CFEDC
:1016A000EB20FFF769FE1420FFF77EFE8420FFF792
:1016B00063FE4020FFF778FE8520FFF75DFEFF20E8
:1016C000FFF772FE8620FFF757FEFF20FFF76CFE44
:1016D0008720FFF751FEFF20FFF766FE8820FFF707
:1016E0004BFE0A20FFF760FE8920FFF745FE212010
:1016F000FFF75AFE8A20FFF73FFE2046FFF754FE11
:101700008B20FFF739FE8020FFF74EFE8C20FFF77D
:1017100033FE0120FFF748FE8D20FFF72DFE01204C
:10172000FFF742FE8E20FFF727FEFF20FFF73CFE6B
:101730008F20FFF721FEFF20FFF736FEB620FFF7D0
:101740001BFE2046FFF730FE2020FFF72DFE012371
:10175000224621462046FFF77BFE0520FFF7A1FE2B
:101760009020FFF709FE0820FFF71EFE0820FFF774
:101770001BFE0820FFF718FE0820FFF715FEBD200E
:10178000FFF7FAFD0620FFF70FFEBC20FFF7F4FD80
:101790002046FFF709FEFF20FFF7EEFD6020FFF770
:1017A00003FE0120FFF700FE0420FFF7FDFDC3202C
:1017B000FFF7E2FD1320FFF7F7FDC420FFF7DCFD84
:1017C0001320FFF7F1FDC920FFF7D6FD2220FFF718
:1017D000EBFDBE20FFF7D0FD1120FFF7E5FDE12076
:1017E000FFF7CAFD1020FFF7DFFD0E20FFF7DCFD3D
:1017F000DF20FFF7C1FD2120FFF7D6FD0C20FFF70A
:10180000D3FD0220FFF7D0FDF020FFF7B5FD452006
:10181000FFF7CAFD0920FFF7C7FD0820FFF7C4FD49
:101820000820FFF7C1FD2620FFF7BEFD2A20FFF7A5
:10183000BBFDF120FFF7A0FD4320FFF7B5FD7020B1
:10184000FFF7B2FD7220FFF7AFFD3620FFF7ACFDCA
:101850003720FFF7A9FD6F20FFF7A6FDF220FFF765
:101860008BFD4520FFF7A0FD0920FFF79DFD082017
:10187000FFF79AFD0820FFF797FD2620FFF794FD5C
:101880002A20FFF791FDF320FFF776FD4320FFF7B5
:101890008BFD7020FFF788FD7220FFF785FD362055
:1018A000FFF782FD3720FFF77FFD6F20FFF77CFDFC
:1018B000ED20FFF761FD1B20FFF776FD0B20FFF702
:1018C00073FDAE20FFF758FD7720FFF76DFDCD20AB
:1018D000FFF752FD6320FFF767FD7020FFF74CFD17
:1018E0000720FFF761FD0720FFF75EFD0420FFF7EB
:1018F0005BFD0E20FFF758FD0F20FFF755FD092077
:10190000FFF752FD0720FFF74FFD0820FFF74CFDC2
:101910000320FFF749FDE820FFF72EFD3420FFF7F5
:1019200043FD6220FFF728FD1820FFF73DFD0D2045
:10193000FFF73AFD7120FFF737FDED20FFF734FD8B
:101940007020FFF731FD7020FFF72EFD1820FFF704
:101950002BFD0F20FFF728FD7120FFF725FDEF205D
:10196000FFF722FD7020FFF71FFD7020FFF71CFD21
:101970006320FFF701FD1820FFF716FD1120FFF788
:1019800013FD7120FFF710FDF120FFF70DFD702012
:10199000FFF70AFD7020FFF707FD1820FFF704FD91
:1019A0001320FFF701FD7120FFF7FEFCF320FFF786
:1019B000FBFC7020FFF7F8FC7020FFF7F5FC6420BB
:1019C000FFF7DAFC2820FFF7EFFC2920FFF7ECFCFB
:1019D000F120FFF7E9FC0120FFF7E6FCF120FFF71B
:1019E000E3FC2046FFF7E0FC0720FFF7DDFC662064
:1019F000FFF7C2FC3C20FFF7D7FC2046FFF7D4FCE2
:101A0000CD20FFF7D1FC6720FFF7CEFC4520FFF784
:101A1000CBFC4520FFF7C8FC1020FFF7C5FC204693
:101A2000FFF7C2FC2046FFF7BFFC2046FFF7BCFCD7
:101A30006720FFF7A1FC2046FFF7B6FC3C20FFF72C
:101A4000B3FC2046FFF7B0FC2046FFF7ADFC204674
:101A5000FFF7AAFC0120FFF7A7FC542006E000BF17
:101A60001DC401201CC4012000300140FFF79CFC74
:101A70001020FFF799FC3220FFF796FC9820FFF723
:101A800093FC7420FFF778FC1020FFF78DFC852075
:101A9000FFF78AFC8020FFF787FC2046FFF784FCD5
:101AA0002046FFF781FC4E20FFF77EFC2046FFF723
:101AB0007BFC9820FFF760FC3E20FFF775FC0720B9
:101AC000FFF772FC3520FFF757FC0120FFF718FDE8
:101AD0002046FFF707FD782001F0BCF80120FFF752
:101AE00019FD142001F0B6F80094F0231A4621469F
:101AF0002046FFF747FDFFF78FFD142001F0AAF8FD
:101B000002B010BD86B0284B984218D0274B98429F
:101B100023D0274B98422DD0264B984237D0264BC6
:101B2000984218D100230593244B1A6B42F01002FF
:101B30001A631B6B03F010030593059B0BE0002356
:101B400001931E4B1A6B42F001021A631B6B03F0E8
:101B500001030193019B06B0704700230293174BCA
:101B60001A6B42F002021A631B6B03F0020302932A
:101B7000029BF0E700230393104B1A6B42F0040220
:101B80001A631B6B03F004030393039BE3E7002337
:101B900004930A4B1A6B42F008021A631B6B03F0A2
:101BA00008030493049BD6E70000024000040240AF
:101BB00000080240000C02400010024000380240C1
:101BC00070B586B005460E461446FFF79BFF01969A
:101BD00002230493002302930593012C09D0022CC5
:101BE0000AD004B9039301A9284601F02DFB06B0E1
:101BF00070BD01230393F6E702230393F3E730B5A7
:101C000087B004460D46FFF77DFF0195022304933C
:101C10000123029301A9204601F016FB07B030BD55
:101C2000002979D000B583B086468C463B4B93E8BB
:101C300003000090ADF80410012A01D0002266E0F4
:101C40005F238DF800308DF801301C238DF80230B1
:101C5000FF238DF8043055238DF80530EEE707EEAD
:101C6000902AB8EE677A0EF1FF3307EE903AF8EE5D
:101C7000E77A87EE276A9DF8003007EE103AB8EE53
:101C8000477AF7EE007A77EEC67A27EE277ADFED0D
:101C9000246A66EE266A37EE267ABCEEC77A17EE1D
:101CA000103A8CF800309DF8013007EE103AB8EE8B
:101CB000477A27EE877A9DF8043006EE903AF8EEE0
:101CC000666A66EE866A37EE267ABCEEC77A17EE4B
:101CD000103A8CF801309DF8023007EE103AB8EE59
:101CE000477A67EE877A9DF8053007EE103AB8EE2E
:101CF000477A27EE067A77EE877AFCEEE77A17EED8
:101D0000903A8CF802300CF1030C013292B2724519
:101D1000A5D303B05DF804FB704700BFC8A7000857
:101D200000007F432DE9F84F83468A4617461E463A
:101D30009DF928809DF82C90002519E005EB0B00FB
:101D400004EB0A0104FB065337F8132009B200B272
:101D5000FFF70EF80134A04509DDB9F1000FEDD011
:101D600004FB065337F81330002BE7D1F2E70135B7
:101D7000AE4201DD0024EEE7BDE8F88F0000000070
:101D80002DE9F0472DED048B88B0B0EE408AF0EEDF
:101D9000608AB0EE419AF0EE619A824657EC126B7F
:101DA0008DED023B0D4690461C467F4B1B781BB1C8
:101DB0007E4B1B7893420AD042467D494320FFF771
:101DC0002FFF794B01221A70784B83F800801E2078
:101DD00000F040FF0020FFF7C5F8012C57D0324635
:101DE0003B4651EC180BFEF74FFA6BA3D3E90023E7
:101DF000FEF702FC8046894632463B46DDE9020199
:101E0000FEF742FA02460B4640464946FEF71EFDE3
:101E10000022684BFEF738FAFEF788FE06B2012C66
:101E200018D005A90320B0EE480AF0EE680A03F0C6
:101E3000E3FF2B4605AA604906A804F0CBF84FF64D
:101E4000FF73009306AB0322A0215520FFF7A0F9F2
:101E5000022C18D005A90320B0EE490AF0EE690A59
:101E600003F0CAFF2B4605AA534906A804F0B2F8AE
:101E7000012C11D04FF6FF73009306AB0222CD2147
:101E80005A20FFF785F96FF0DF04002565E0B0EE1A
:101E9000498AF0EE698AA2E74FF6FF73009306AB1A
:101EA0000322CD215520FFF773F9ECE707EE904AA6
:101EB000F8EEE77A17EE900AFEF746FB38A3D3E96F
:101EC0000023FEF799FB00223C4BFEF7BFFCFEF718
:101ED00075FEFEF739FB41EC180BB0EE480AF0EE48
:101EE000680A07F009F951EC100B0022344BFEF799
:101EF00083FB0022334BFEF7C9F9FEF717FE0746B6
:101F0000B0EE480AF0EE680A07F03AF951EC100B0F
:101F100000222B4BFEF770FB00222A4BFEF7B6F98E
:101F2000FEF704FE224A05EB4503D118D35C1B02E1
:101F300003F478431BB24A78D20002F4FC621343E4
:101F40008A7843EAD2039BB2142201B238B2FFF777
:101F50006EF80135ADB2043424B2B442A6DBBAF156
:101F6000000F0FD10123019354230093164A4E21F1
:101F70000846FFF7D7FEFEF7F7FE08B0BDEC048B6E
:101F8000BDE8F08701230193542300930F4A4E21AB
:101F90000846FFF7C7FEEEE70000000000C07040F3
:101FA000F1D4C853FB210940EAC40120E9C401204F
:101FB00020C4012000006C4058DA00080080664010
:101FC0000040594000005E4078DA0008981101088E
:101FD000F0B587B007460E461E2000F03BFE0020FD
:101FE000FEF7C0FF4FF6FF740094184B01226921E1
:101FF0005520FFF7CDF800F041FE0246144903A832
:1020000003F0E8FF009403AB0122AF215020FFF75B
:10201000BFF8012510E005EB450000EBC00000EB28
:1020200084004FF47F430A22962100B2FEF7FFFF9F
:102030000134092CEFDD0135B54203DCBD4201DC82
:102040000124F6E7FEF790FE07B0F0BD60DA000865
:102050006CDA00082DE9F0438DB000240794089451
:1020600009940A940B940194484B1A6B42F00402B1
:102070001A631A6B02F004020192019A02941A6B1D
:1020800042F080021A631A6B02F080020292029AF6
:1020900003941A6B42F001021A631A6B02F00102F8
:1020A0000392039A04941A6B42F002021A631A6BA9
:1020B00002F002020492049A05941A6B42F008029C
:1020C0001A631A6B02F008020592059A06941A6BBD
:1020D00042F040021A631B6B03F040030693069B19
:1020E000DFF8B89022460C21484601F0A4F9DFF849
:1020F000B080224644F28101404601F09CF9244D13
:1021000022464021284601F096F94FF400530793E8
:102110004FF488130893099407A91E4801F094F816
:102120000C23079301260896099403270A9707A909
:10213000484601F089F844F2810307930896099410
:102140000A9407A9404601F07FF84FF440730793C3
:102150000223089309940A9707230B9307A90E48B3
:1021600001F072F840230793089609940A9407A98E
:10217000284601F069F8802307930894099407A979
:10218000284601F061F80DB0BDE8F0830038024048
:102190000018024000080240000C0240000002400B
:1021A0000004024010B582B000240094164B1A6B54
:1021B00042F480021A631A6B02F480020092009AC1
:1021C00001941A6B42F400121A631B6B03F40013A0
:1021D0000193019B224621460B2000F0ABFD0B2012
:1021E00000F0B8FD224621462F2000F0A3FD2F204D
:1021F00000F0B0FD224621463A2000F09BFD3A2037
:1022000000F0A8FD02B010BD0038024008B50C482F
:102210000C4B03604FF4827343604FF400438360C0
:102220000023C360036143614FF480228261C36174
:102230000362436283620A23C36201F085FF08BD23
:10224000E4CA01200030014008B50A484FF0A0431D
:102250000360062303710222C2710023837142725C
:1022600001228272C372037342738273C37301F0DB
:10227000F1F808BDF8C4012008B50848084B036010
:102280004FF41653436000238360C36003610C2244
:1022900042618361C36102F04DFA08BD9CCA01200E
:1022A0000050004030B595B03422002107A803F05B
:1022B000F6FE00240294039404940594069400947A
:1022C0001C4B1A6C42F080521A641B6C03F0805352
:1022D0000093009B0194184B1A6842F440421A6024
:1022E0001B6803F440430193019B012307934FF4C0
:1022F000A023089302250D954FF480030E93082325
:102300000F934FF4C07210920422119212931395FE
:1023100007A801F06DFC0F230293039504944FF47A
:10232000805305930694032102A801F09DF915B08E
:1023300030BD00BF003802400070004000000000C7
:10234000F0B583B000F05AFC8B4C4FF4804120462E
:10235000FFF755FC80212046FFF751FC0121204664
:10236000FFF74DFC01221146204601F064F864207D
:1023700000F070FC4FF48041204601F062F86420C8
:1023800000F068FC4FF48041204601F05AF8FFF756
:1023900089FFFFF75FFEFFF705FFFFF737FFFFF746
:1023A00053FFFFF769FF7548FEF792FC00220121F9
:1023B000204601F040F8642000F04CFC0122114658
:1023C000204601F038F8F0210846FEF7E5FD00F060
:1023D0003BFC064600F038FC054600276FE0684CE1
:1023E00005212078FFF7F4FD23786BB1013BDBB2C8
:1023F000032B2DD9624B06221A700123614A1370F8
:10240000614A5370137123E0604C0A2260492046F0
:1024100002F0C0F905226946204602F0D1FC17E01F
:102420000020574B18705B4B1B785B4A12782521B4
:102430009FED493B9FED4A2B9FED4B1B574C94ED75
:10244000000BFFF79DFC0A225149504802F0A2F907
:1024500000F0FAFB831B322B0DD94A4B1B7853B982
:10246000474B1C78BC425CD000F0EEFB064600F007
:10247000EBFB0546274600F0E7FB431B41F28832A1
:10248000934209D9464B1B7833B93E4B1B78002B3E
:1024900055D100F0D9FB0546384C2046FEF722FC0A
:1024A0002046FEF75AFC50B18021334800F0C9FFA6
:1024B0003B4B1B78002B4AD1394B01221A70314B10
:1024C0001B78052BC4D801A252F823F0DF230008A3
:1024D00021240008E52400085124000851240008A4
:1024E000052500082B4B1B78002225219FED1A3B68
:1024F0009FED1B2B01209FED1C1B9FED1D0BFFF77C
:102500003FFCA5E700231A4625219FED133B9FEDD5
:10251000142B18469FED141B9FED150BFFF730FC95
:1025200096E7631C164A13709EE7164B01221A7039
:10253000144B1B78013B144AD35C002BA9D1114BDF
:102540001B78042BF1D801330E4A1370F0E7144BBB
:1025500000221A70B3E700BF0000000000007940BD
:1025600000000000000000000000000000803C406F
:10257000CDCCCCCCCCCC39400004024000000020B3
:10258000F1C40120F2C40120ECC401209CCA012046
:1025900014000020F3C40120F4C401202000002016
:1025A000EBC4012010B582B01B4B1B789BB14FF4DC
:1025B00080411A4800F045FF9DF800304C2B1BD19C
:1025C000174B01221A70174B02221A70164B472222
:1025D0001A7002B010BD05226946144802F0F0FBE3
:1025E000134B1B78002BE2D1124B01221A700A4ABE
:1025F000137801331370DAE7684602F0EAFD51EC14
:10260000100B0D4C84ED000B00220C4BFEF71EF955
:10261000C4E90001DDE700BFF1C40120000402406D
:10262000F4C40120F3C40120140000209CCA01203E
:10263000F2C40120ECC4012020000020000024404E
:102640007047000008B5054B834200D008BD044B1D
:102650001B68002BFAD09847F8E700BFA0CB0120F9
:102660003CCB012008B530B14FF400630348C36090
:1026700001F06AFD08BD0023F8E700BFA0CB0120F0
:1026800070B58AB004460D4600210191414B1A6B8A
:1026900042F001021A631B6B03F001030193019BDB
:1026A000B023059302230693079103230893052380
:1026B000099305A9384800F0C7FD384B9C425AD011
:1026C00000230393334B1A6C42F480421A641B6C50
:1026D00003F480430393039B314B19680A6822F08B
:1026E00040020A601C6000229A604FF482715960B7
:1026F00002211961012159614FF4802199611A6207
:10270000002D45D01346264EF3610020FFF7AAFFA7
:10271000002504951F4B1A6B42F480021A631B6B51
:1027200003F480030493049B1E4C1F4B23604FF063
:10273000806363604023A360E5604FF4806323619E
:102740006561A561E5614FF400332362656220464F
:1027500000F094FBB464A6632A4629463A2000F0B0
:10276000E9FA3A2000F0F6FA3268136843F04003C1
:1027700013600AB070BD00230293064B5A6C42F4FA
:1027800080525A645B6C03F480530293029BA3E76C
:102790002823B8E700380240000002400030014022
:1027A000A0CB012040CB01204064024038B51D463B
:1027B000074B1B68834200D038BD14460846FFF71C
:1027C00051FF64232A462146014801F01CFDF3E72E
:1027D000A0CB01201146074A1268824200D0704700
:1027E00008B50298044A10601A46024801F0E8FD54
:1027F00008BD00BFA0CB01203CCB012082B000214E
:1028000000910B4B5A6C42F480425A645A6C02F4A9
:1028100080420092009A01911A6C42F080521A6430
:102820001B6C03F080530193019B02B0704700BF03
:102830000038024030B589B0002303930493059318
:10284000069307930268224B9A4201D009B030BD2B
:1028500004460025019503F584335A6C42F48052F6
:102860005A645A6C02F480520192019A02951A6BD2
:1028700042F001021A631B6B03F001030293029BF7
:10288000B0230393022304930323069305230793A2
:1028900003A9104800F0D8FC0F48104B03604FF01C
:1028A0008063436040238360C5604FF480630361AD
:1028B00045618561C5610562456200F0DFFA18B9BE
:1028C000054BA3649C63C1E7FFF7BAFEF8E700BFBE
:1028D000003001400000024040CB01204064024033
:1028E00030B589B0002303930493059306930793AF
:1028F0000268334B9A4201D009B030BD044600252E
:10290000019503F5F4331A6C42F480121A641A6CC0
:1029100002F480120192019A02951A6B42F00202AF
:102920001A631B6B03F002030293029B4FF44053A4
:10293000039302230493032306930B23079303A912
:10294000204800F081FC2048204B03604FF00063DA
:1029500043608560C5604FF48063036145618561B4
:10296000C5610562456200F089FA18BB164BE36346
:102970009C631748174B03604FF08053436040231C
:1029800083600023C3604FF480620261436183610E
:10299000C3610362436200F071FA70B90C4BA36328
:1029A0009C6300221146352000F0C4F9352000F068
:1029B000D1F9A1E7FFF744FED8E7FFF741FEEDE7C5
:1029C00000500040000402403CCA01201060024058
:1029D000DCC90120B860024070B59EB004460021F9
:1029E00019911A911B911C911D91582203A803F073
:1029F00056FB2368B3F1A04F01D01EB070BD202359
:102A0000039303A800F006FF002832D100250195AA
:102A1000194C236B43F001032363236B03F0010381
:102A20000193019B4FF4E853199302231A931B95CA
:102A300003231C930A231D93104E19A9304600F05E
:102A400003FC4FF4007319931A951B9519A930468E
:102A500000F0FAFB636B43F0800363630295636CE1
:102A600043F480436364636C03F480430293029BEA
:102A7000C3E7FFF7E5FDC9E7003802400000024068
:102A80007047FEE7FEE7FEE7FEE7704770477047D6
:102A900008B500F0CDF808BD08B5024800F0E6FA28
:102AA00008BD00BF3CCA012008B5024800F0DEFAAC
:102AB00008BD00BFDCC9012008B5024801F090FF45
:102AC00008BD00BF9CCA012008B5024800F0CEFA3C
:102AD00008BD00BF40CB01200120704708B503F0BE
:102AE0003FFB162303604FF0FF3008BD08B54FF0E1
:102AF000FF31FFF7F3FFFEE770B50C4616460025E1
:102B000006E0AFF30080214601F8010B01350C46C9
:102B1000B542F6DB304670BD70B50C461646002552
:102B200004E014F8010BAFF300800135B542F8DB87
:102B3000304670BD4FF0FF3070474FF400534B608C
:102B400000207047012070470020704710B50346F1
:102B50000C4A0D490D48006840B10C480068034418
:102B6000521A934206D8094A136010BD0748084C10
:102B70000460F2E703F0F4FA0C2303604FF0FF3037
:102B8000F3E700BF0000052000040000F8CB01209F
:102B900050CD0120054BD3F8882042F47002C3F8D1
:102BA00088204FF000629A60704700BF00ED00E09F
:102BB00010B504460E4B1A784FF47A73B3FBF2F358
:102BC0000C4A1068B0FBF3F000F0C8F868B90F2C9D
:102BD00001D901200AE0002221464FF0FF3000F029
:102BE000A9F8054B1C60002000E0012010BD00BFCB
:102BF0002C000020280000203000002008B50B4BDE
:102C00001A6842F400721A601A6842F480621A600C
:102C10001A6842F480721A60032000F079F80020EC
:102C2000FFF7C6FFFFF7EAFD002008BD003C0240A9
:102C3000034A1168034B1B780B441360704700BFB5
:102C4000FCCB01202C000020014B1868704700BF0E
:102C5000FCCB012038B50446FFF7F6FF0546B4F17A
:102C6000FF3F02D0044B1B781C44FFF7EDFF401BD5
:102C7000A042FAD338BD00BF2C000020024B1868D8
:102C8000C0F30B00704700BF002004E0002807DB02
:102C900000F01F02400901239340024A42F820300D
:102CA000704700BF00E100E0002808DB0901C9B25D
:102CB00000F1604000F5614080F80013704700F0BB
:102CC0000F000901C9B2014B1954704714ED00E01F
:102CD00000B500F00700C0F1070CBCF1040F28BFDD
:102CE0004FF0040C031D062B0FD9C31E4FF0FF3EFF
:102CF0000EFA0CF021EA000199400EFA03FE22EAD6
:102D00000E0241EA02005DF804FB0023EEE700003A
:102D1000074AD36823F4E0631B041B0C000200F491
:102D2000E060034343F0BF6343F40033D360704774
:102D300000ED00E010B50446054BD868C0F3022052
:102D4000FFF7C6FF01462046FFF7AEFF10BD00BFEC
:102D500000ED00E008B5FFF799FF08BD0138B0F1BC
:102D6000807F0BD24FF0E0235861054AF02182F8B2
:102D700023100020986107221A61704701207047D4
:102D800000ED00E030B405682C6824F480242C6049
:102D9000046863608368402B05D00368996003680A
:102DA000DA6030BC704703689A600368D960F8E75E
:102DB00010B40368D9B210390A4AA2FB01421209C1
:102DC000094CA25CC2655F2907D96FF3090304337C
:102DD0008365806D5DF8044B70476FF3090383656D
:102DE000F7E700BFABAAAAAAD0480108836A8269A4
:102DF00092B9012B0AD0022B02D00BB100207047F0
:102E0000C36A13F0807F28D100207047C36AB3F1F2
:102E1000C07F24D000207047B2F5005F09D0022B9C
:102E200025D9032B25D1C36A13F0807F23D100203D
:102E30007047032B03D8DFE803F01404140A0020C2
:102E40007047C36A13F0807F0DD100207047C36ABA
:102E5000B3F1C07F09D000207047012070470120E6
:102E60007047012070470120704701207047012002
:102E700070470020704701207047000070B504467D
:102E8000FFF7E2FE002C5BD00546022384F83530C4
:102E9000002384F834302268136823F001031360A0
:102EA00023681A6812F0010F0AD0FFF7CDFE431B0A
:102EB000052BF5D920236365032084F8350070BD08
:102EC0001A68204911406268A0680243E068024322
:102ED0002069024360690243A0690243E06902433A
:102EE000206A02430A43616A04291ED01A602668D8
:102EF000756925F00705636A1D43042B07D1A36A92
:102F00001D43E36A1BB12046FFF770FF90B975615E
:102F10002046FFF74DFFE26D3F2393408360002082
:102F20006065012384F83530C9E7E16A206B01430D
:102F30000A43DBE740236365012084F83500BEE7E0
:102F40000120BCE73F8010E038B50446856D90F85D
:102F5000340001282BD0012084F8340094F8350087
:102F6000C0B2012804D0002384F83430022038BDD8
:102F7000022084F83500002060652046FFF702FF3C
:102F8000E26D3F239340AB602268136843F0160361
:102F90001360236C23B12268136843F008031360A5
:102FA0002268136843F0010313600020DFE702206A
:102FB000DDE770B50446866DFFF746FE94F83530C0
:102FC000DBB2022B06D080236365002384F8343003
:102FD000012070BD05462268136823F016031360B4
:102FE0002268536923F080035361236CE3B12268A4
:102FF000136823F0080313602268136823F00103A9
:10300000136023681B6813F0010F11D0FFF71CFE3B
:10301000431B052BF5D920236365032084F8350075
:10302000002384F83430D4E7A36C002BDFD1E3E72E
:10303000E26D3F239340B360012384F835300020D4
:1030400084F83400C5E790F83530DBB2022B03D0AA
:103050008023436501207047052380F835300268DE
:10306000136823F00103136000207047F0B583B0AC
:10307000044600230193724B1D68724BA3FB053578
:10308000AD0A876D3E68C26D08239340334210D06D
:1030900003681A6812F0040F0BD01A6822F00402B9
:1030A0001A60C26D08239340BB60436D43F0010377
:1030B0004365E26D01239340334209D0226852698F
:1030C00012F0800F04D0BB60636D43F002036365B0
:1030D000E26D04239340334209D02268126812F053
:1030E000020F04D0BB60636D43F004036365E26DBF
:1030F00010239340334224D02268126812F0080F44
:103100001FD0BB6023681A6812F4802F0DD01B6893
:1031100013F4002F04D1236C9BB12046984710E094
:10312000A36C73B1204698470BE01A6812F4807FB5
:1031300003D11A6822F008021A60236C0BB12046F2
:103140009847E26D20239340334255D0226812689D
:1031500012F0100F50D0BB6094F83530DBB2052B65
:103160000ED023681A6812F4802F33D01B6813F432
:10317000002F2AD1636C002B3ED0204698473BE0BD
:103180002268136823F0160313602268536923F042
:1031900080035361236CA3B12268136823F00803F2
:1031A0001360E26D3F239340BB60012384F8353008
:1031B000002384F83430236D002B3FD020469847FD
:1031C0003CE0A36C002BE7D1EBE7E36BA3B1204617
:1031D000984711E01A6812F4807F09D11A6822F02A
:1031E00010021A60012384F83530002384F834304B
:1031F000E36B0BB120469847636DFBB1636D13F031
:10320000010F17D0052384F835302268136823F0A6
:1032100001031360019B01330193AB4204D823687F
:103220001B6813F0010FF5D1012384F8353000231A
:1032300084F83430E36C0BB12046984703B0F0BDFE
:1032400028000020B5814E1B00230F2B00F2E380E5
:1032500070B582B065E085684FEA430E032404FA36
:103260000EF425EA0405CC6804FA0EF42C438460BD
:10327000446824EA02044A68C2F300129A402243D6
:1032800042605CE0DC08083450F8242003F00705B5
:10329000AD004FF00F0E0EFA05FE22EA0E0E0A697F
:1032A000AA4042EA0E0240F824205CE0062200E038
:1032B000002202FA0EF22A430234574D45F8242028
:1032C000564A94686FEA0C0224EA0C054E6816F41C
:1032D000801F01D04CEA0405504CA560E46802EA66
:1032E00004054E6816F4001F01D04CEA04054B4C4F
:1032F000E560646802EA04054E6816F4003F01D0F8
:103300004CEA0405454C6560246822404D6815F47C
:10331000803F01D04CEA0402404C226001330F2B65
:1033200077D801229A400C6804EA020C32EA0404BD
:10333000F4D14C6804F00304013C012C8BD94A6899
:1033400002F00302032A09D0C4685D000322AA40E8
:1033500024EA02048A68AA402243C2604A6802F052
:103360000302022A8ED004684FEA430E032202FAB7
:103370000EF224EA02044A6802F0030202FA0EF294
:10338000224302604A6812F4403FC7D000220192F3
:10339000234A546C44F480445464526C02F48042D6
:1033A0000192019A9C08A51C1B4A52F8255003F073
:1033B000030E4FEA8E0E0F2202FA0EF225EA0205E4
:1033C000184A90423FF474AF02F58062904216D0E2
:1033D00002F58062904214D002F58062904212D0D1
:1033E00002F58062904210D002F5806290420ED0C9
:1033F00002F5806290423FF459AF072259E701225B
:1034000057E7022255E7032253E7042251E705223A
:103410004FE702B070BD704700380140003C0140EA
:1034200000380240000002400369194201D0012027
:103430007047002070470AB18161704709048161BB
:103440007047436901EA030221EA030141EA0241AC
:103450008161704730B583B0002800F08280044657
:10346000056890F89534C3B1032384F89534B5F119
:10347000A04F17D0206801F024FD237C8DF8003088
:10348000231D0ECB206801F0D3FC70B1022384F819
:1034900095340125284603B030BD80F89434FFF7F9
:1034A0009BFAE1E70023A371E4E70021206801F023
:1034B00035FE024608B9034617E0022384F8953426
:1034C0000125E7E703EBC30104EB81010120487507
:1034D0000B75CB8500200876C861086203EBC30139
:1034E00004EB810148620133DBB220799842E9D8CC
:1034F00016E002EBC20304EB8303002183F85512AC
:1035000083F8542283F85812C3F85C12C3F860128F
:1035100002EBC20304EB8303C3F864120132D2B29C
:103520009042E6D8237C8DF80030231D0ECB206816
:1035300001F01CFD054658B900236374012384F88B
:103540009534237B012B08D0206801F0D5FDA1E73D
:10355000022384F8953401259CE7204600F003F807
:10356000F2E7012596E7034602680121C0F8D81466
:10357000002083F8CC04936943F000639361536D9A
:1035800043F0805343F003035365704708B5334B52
:103590009B6803F00C03042B5BD0082B5BD12F4BF3
:1035A0005A6802F03F025B6813F4800F2CD02B4B5B
:1035B0005868C0F388104FEA401CBCEB000C6EEB5F
:1035C0000E0E4FEA8E1343EA9C634FEA8C11B1EB67
:1035D0000C0163EB0E03DB0043EA5173C90011EBEE
:1035E000000C43F10003590200234FEA4C2041EA4A
:1035F000DC51FDF733FB194B5B68C3F30143013327
:103600005B00B0FBF3F008BD144B5868C0F38810A2
:103610004FEA401CBCEB000C6EEB0E0E4FEA8E1313
:1036200043EA9C634FEA8C11B1EB0C0163EB0E0390
:10363000DB0043EA5173C90011EB000C43F10003B6
:10364000990200234FEA8C2041EA9C51FDF706FBCA
:10365000D1E70348D7E70348D5E700BF0038024069
:1036600000127A000024F400002800F09B8070B55E
:103670000D4604464F4B1B6803F007038B4208D2EC
:10368000CBB24C4A1370136803F007038B4240F02F
:103690008B80236813F0020F17D013F0040F04D0AF
:1036A000454A936843F4E0539360236813F0080F8E
:1036B00004D0414A936843F4604393603E4A936860
:1036C00023F0F003A1680B439360236813F0010F0C
:1036D00032D06368012B21D09A1E012A25D9364A9F
:1036E000126812F0020F61D033498A6822F0030297
:1036F00013438B60FFF7A8FA06462F4B9B6803F035
:103700000C036268B3EB820F16D0FFF79DFA801BA3
:1037100041F288339842F0D9032042E0264A1268E9
:1037200012F4003FE0D101203BE0234A126812F07E
:10373000007FD9D1012034E01E4B1B6803F0070342
:10374000AB4207D9EAB21B4B1A701B6803F00703A0
:10375000AB422DD1236813F0040F06D0164A9368AC
:1037600023F4E053E1680B439360236813F0080FE0
:1037700007D0114A936823F46043216943EAC103E7
:103780009360FFF703FF0C4B9B68C3F303130B4AD3
:10379000D35CD8400A4B18600A4B1868FFF708FA48
:1037A000002070BD012070470120FAE70120F8E7F2
:1037B0000120F6E7003C024000380240C048010802
:1037C0002800002030000020014B1868704700BF1F
:1037D0002800002008B5FFF7F7FF044B9B68C3F3F0
:1037E0008223034AD35CD84008BD00BF00380240A2
:1037F000B848010808B5FFF7E7FF044B9B68C3F31F
:103800004233034AD35CD84008BD00BF00380240B1
:10381000B848010870B582B00446056815F0010586
:103820000DD0A84AD2F88C3023F0C063C1690B4395
:10383000C2F88C30C369002B00F0BF8000252368DC
:1038400013F0020F0BD09F4AD2F88C3023F0C053F4
:10385000216A0B43C2F88C30236A03B9012523681F
:1038600013F4005F0FD0974AD2F88C3023F4401342
:10387000A16C0B43C2F88C30A36C03B90125B3F5DE
:10388000001F00F09C80236813F4804F0FD08D4AF6
:10389000D2F88C3023F44003E16C0B43C2F88C3037
:1038A000E36C03B90125B3F5000F00F094802368A1
:1038B00013F0080F40F09B80236813F0040F04D02E
:1038C00094F85420804BC3F8E021236813F0100FC4
:1038D00008D07C4AD2F8943023F44003E16A0B43C9
:1038E000C2F89430236813F0200F0DD0754AD2F837
:1038F000943023F00063216B0B43C2F89430236BA8
:10390000B3F1006F00F0DC80236813F0400F08D0A3
:103910006C4AD2F8943023F08053A16A0B43C2F86A
:103920009430002D40F0D6802368802B00F0D280A8
:10393000236813F4807F08D0624AD2F88C3023F0D9
:103940000043616B0B43C2F88C30236813F4007F93
:1039500008D05C4AD2F88C3023F40043A16B0B43AF
:10396000C2F88C30236813F4806F08D0554AD2F81F
:103970008C3023F00043E16B0B43C2F88C3023689A
:1039800013F4006F08D04F4AD2F88C3023F48043F0
:10399000216C0B43C2F88C30236813F4805F00F075
:1039A0001E81484AD2F8943023F04043616C0B43A7
:1039B000C2F89430002002B070BD01253FE74149B4
:1039C000D1F88C3023F4F8536269013A43EA0223B8
:1039D000C1F88C3057E73B49D1F88C3023F4F853C9
:1039E0006269013A43EA0223C1F88C305FE70023A1
:1039F0000193344B1A6C42F080521A641B6C03F032
:103A000080530193019B314A136843F48073136020
:103A1000FFF71AF906462D4B1B6813F4807F06D179
:103A2000FFF712F9801B0228F5D90320C3E7254BC5
:103A30001B6F13F4407314D0626A02F440729A420E
:103A40000FD0204B1A6F22F4407221490120C1F897
:103A5000400E0020C1F8400E1A671B6F13F0010FD3
:103A600012D1636A03F44072B2F5407F1DD0154A4B
:103A7000936823F4F813936012490B6F626AC2F3E0
:103A80000B0213430B6717E7FFF7DEF806460D4BF3
:103A90001B6F13F0020FE4D1FFF7D6F8801B41F241
:103AA00088339842F3D9032085E706498A6822F4CF
:103AB000F81223F0704323F4407313438B60DBE769
:103AC000012521E700380240001047420070004005
:103AD00000004742434B00229A66FFF7B5F80546BF
:103AE000414B1B6813F0006F06D0FFF7ADF8401B89
:103AF0000228F5D903205EE7226D3C4BC3F8D8209D
:103B0000236813F0010F01D0E269A2B113F0020F94
:103B100001D0226A7AB113F0200F03D0226BB2F1E8
:103B2000006F08D013F0400F12D0A36A83B9236B43
:103B3000B3F1006F0CD16368A26843EA8213E268B4
:103B400043EA0263226943EA0273274AC2F88430D7
:103B5000236813F4005F01D0A26C22B113F4804FEC
:103B600019D0E36CBBB9204AD2F884106368A0680E
:103B700043EA801301F070610B43216943EA01734A
:103B8000C2F88430D2F88C3023F01F03A1690139C8
:103B90000B43C2F88C30236813F0800F0CD063689D
:103BA000A26843EA8213E26843EA0263226943EAB5
:103BB00002730D4AC2F884300A4B01229A66FFF75D
:103BC00043F80546084B1B6813F0006F7FF4B0AE56
:103BD000FFF73AF8401B0228F4D90320EBE6002057
:103BE000E9E600BF000047420038024000104742AB
:103BF000002800F0E98170B582B00446036813F034
:103C0000010F3BD09F4B9B6803F00C03042B2CD07F
:103C10009C4B9B6803F00C03082B21D06368B3F521
:103C2000803F4FD0B3F5A02F52D0964B1A6822F4A4
:103C300080321A601A6822F480221A606368002BAE
:103C400050D0FFF701F805468E4B1B6813F4003F78
:103C500014D1FEF7F9FF401B6428F5D90320BAE11F
:103C6000884B5B6813F4800FD8D0864B1B6813F425
:103C7000003F03D06368002B00F0A881236813F095
:103C8000020F54D07F4B9B6813F00C0F3ED07D4B3E
:103C90009B6803F00C03082B33D0E368002B68D03B
:103CA000794B01221A60FEF7CFFF0546754B1B6862
:103CB00013F0020F54D1FEF7C7FF401B0228F5D9BD
:103CC000032088E16F4A136843F480331360B5E73B
:103CD0006C4B1A6842F480221A601A6842F48032EF
:103CE0001A60ABE7FEF7B0FF0546664B1B6813F49E
:103CF000003FC3D0FEF7A8FF401B6428F5D903207E
:103D000069E1604B5B6813F4800FC6D15D4B1B68A3
:103D100013F0020F03D0E368012B40F05981594A98
:103D2000136823F0F803216943EAC1031360236891
:103D300013F0080F42D063696BB3534B0122C3F8F1
:103D4000802EFEF781FF05464E4B5B6F13F0020F8E
:103D500034D1FEF779FF401B0228F5D903203AE160
:103D6000484A136823F0F803216943EAC10313604A
:103D7000DDE7454B00221A60FEF766FF0546414B22
:103D80001B6813F0020FD2D0FEF75EFF401B022823
:103D9000F5D903201FE13C4B0022C3F8802EFEF72B
:103DA00053FF0546374B5B6F13F0020F06D0FEF74B
:103DB0004BFF401B0228F5D903200CE1236813F0C8
:103DC000040F77D02F4B1B6C13F0805F33D100238F
:103DD00001932C4B1A6C42F080521A641B6C03F056
:103DE00080530193019B0125284B1B6813F4807FAE
:103DF00023D0A368012B34D0052B38D0214B1A6F68
:103E000022F001021A671A6F22F004021A67A368EF
:103E1000002B3DD0FEF718FF06461A4B1B6F13F020
:103E2000020F46D1FEF710FF801B41F28833984203
:103E3000F3D90320CFE00025D6E7144A136843F4F2
:103E400080731360FEF700FF0646104B1B6813F4E7
:103E5000807FCED1FEF7F8FE801B0228F5D9032023
:103E6000B9E0084A136F43F001031367CFE7054B2E
:103E70001A6F42F004021A671A6F42F001021A67C1
:103E8000C5E700BF00380240000047420070004014
:103E9000FEF7DAFE0646584B1B6F13F0020F08D0F0
:103EA000FEF7D2FE801B41F288339842F3D90320FB
:103EB00091E0EDB9A369002B00F08C804E4A926826
:103EC00002F00C02082A54D0022B17D04B4B0022D0
:103ED0001A66FEF7B9FE0446474B1B6813F0007FD5
:103EE00045D0FEF7B1FE001B0228F5D9032072E091
:103EF000414A136C23F080531364DBE73F4B0022ED
:103F00001A66FEF7A1FE05463B4B1B6813F0007FC7
:103F100006D0FEF799FE401B0228F5D903205AE08F
:103F2000E369226A1343626A43EA8213A26A52086F
:103F3000013A43EA0243E26A43EA0263226B43EA3C
:103F400002732D4A53602D4B01221A66FEF77CFE48
:103F50000446294B1B6813F0007F06D1FEF774FE60
:103F6000001B0228F5D9032035E0002033E00020B3
:103F700031E0012B31D0204B5B6803F48001E26912
:103F800091422CD103F03F02216A8A4229D1616A11
:103F900047F6C0721A40B2EB811F24D103F44031BE
:103FA000A26A5208013AB1EB024F1ED103F07062CF
:103FB000E16AB2EB016F1AD103F0E043226BB3EB7D
:103FC000027F16D1002006E001207047012002E0A8
:103FD000012000E0002002B070BD0120FBE70120BD
:103FE000F9E70120F7E70120F5E70120F3E70120D9
:103FF000F1E70120EFE700BF003802400000474230
:104000002DE9F04782B00546884617461E46FEF762
:104010001BFE0A9B1B1A03EB0609FEF715FE8246E0
:10402000284B1B68C3F3CB3309FB03F301932B68C5
:104030009C6838EA04040CBF01230023BB423DD036
:10404000B6F1FF3FF3D0FEF7FFFDA0EB0A004845B5
:1040500007D2019A02B14A46019B013B0193914666
:10406000E5E72A68536823F0E00353606B68B3F513
:10407000827F0BD0AB6AB3F5005F14D0012385F8C3
:104080005130002385F85030032018E0AB68B3F5B9
:10409000004F02D0B3F5806FECD12A68136823F08B
:1040A00040031360E6E72A68136823F400531360A3
:1040B0002A68136843F400531360DFE7002002B05E
:1040C000BDE8F0872800002070B584B004460D4696
:1040D000164600920B4601220221FFF791FFD0B94C
:1040E000174B1B68174AA2FB03235B0D4FF47A7230
:1040F00002FB03F303936368B3F5827F11D0039B44
:104100003BB1039B013B039323689B6813F0800F33
:10411000F5D104B070BD636D43F0200363650320E7
:10412000F7E700962B46002280212046FFF768FF24
:104130000028EED0636D43F0200363650320E8E7B9
:1041400028000020819F5E1600285AD010B5044632
:10415000436A33B94368B3F5827F05D00023C36156
:1041600002E00023036143610023A36294F851300D
:10417000002B40D0022384F851302268136823F0CA
:1041800040031360636803F48273A26802F404427C
:104190001343E26802F400621343226902F0020250
:1041A0001343626902F001021343A26902F4007230
:1041B0001343E26902F038021343226A02F08002DC
:1041C0001343A26A02F40052216813430B60638B0D
:1041D00003F00403626A02F01002216813434B608B
:1041E0002268D36923F40063D36100206065012352
:1041F00084F8513010BD84F850302046FEF71AFB89
:10420000B8E7012070472DE9F04383B01D4690F8D0
:104210005030012B00F0D18004468846914601239E
:1042200080F85030FEF710FD074694F85160F6B262
:10423000012E40F0BA80B8F1000F00F0B780B9F15C
:10424000000F00F0B380032384F85130002363652E
:10425000C4F83080A4F83490A4F83690A363A38700
:10426000E38763642364A368B3F5004F1ED023681B
:104270001A6812F0400F03D11A6842F040021A6027
:10428000E368B3F5006F1CD0636813B1B9F1010F97
:1042900055D1226B236812781A73236B0133236381
:1042A000E38E9BB2013B9BB2E38648E02268136831
:1042B00023F0400313602268136843F480431360C3
:1042C000D5E7636813B1B9F1010F15D1226B2368EB
:1042D0001288DA60236B02332363E38E9BB2013BC7
:1042E0009BB2E38608E0FEF7AFFCC01BA84202D3F6
:1042F000B5F1FF3F15D1A5B1E38E9BB2002B3CD0A9
:1043000023689A6812F0020FEDD0226B1288DA60EF
:10431000236B02332363E38E9BB2013B9BB2E386A4
:10432000EAE7012384F8513003263FE0FEF78CFCD6
:10433000C01BA84202D3B5F1FF3F19D1C5B1E38E2E
:104340009BB2D3B123689A6812F0020FEED0226BB1
:1043500012781A73236B01332363B4F836C01FFA43
:104360008CFC0CF1FF3C1FFA8CFCA4F836C0E6E78D
:10437000012384F85130032618E03A4629462046A6
:10438000FFF7A2FE08B120236365A36833B9019348
:104390002368DA6801929B680193019B636D2BB9D6
:1043A000012384F85130002600E00226002384F81F
:1043B0005030304603B0BDE8F0830226F9E7000034
:1043C00038B590F85030012B5ED00446012380F8B8
:1043D000503090F85150EDB29D424FD100294ED04F
:1043E000002A4CD0032380F8513000234365016339
:1043F0008286C2868363436403648387C38783683A
:10440000B3F5004F2AD0A36C204A1A64A36C204A4B
:10441000DA63A36C1F4ADA64A36C00221A6522686F
:10442000E38E9BB20C32216BA06CFEF78DFD014632
:10443000F8B923681A6812F0400F03D11A6842F0E5
:1044400040021A602268536843F0200353602268D8
:10445000536843F0020353600D4610E0026813688E
:1044600023F0400313600268136843F48043136031
:10447000C9E7636D43F01003636500E00225002384
:1044800084F85030284638BD0225FBE79B440008DD
:10449000C9440008A7440008704708B5806BFFF7BF
:1044A000FBFF08BD704708B5806B0268536823F0B6
:1044B00003035360436D43F010034365012380F809
:1044C0005130FFF7EFFF08BD30B583B00546846B70
:1044D000FEF7BAFB2B681B6813F4807F23D10246DA
:1044E00021684B6823F020034B6021684B6823F060
:1044F00002034B6064212046FFF7E6FD18B1636DAF
:1045000043F020036365A36833B901932368DA6835
:1045100001929B680193019B0023E386012384F8A9
:104520005130636D23B92046FEF78CF803B030BDDF
:104530002046FFF7B7FFF9E7026802F10C0353E8E2
:10454000003F23F0C0030C3242E800310029F3D1D0
:10455000202380F841307047026802F10C0353E8D1
:10456000003F23F490730C3242E800310029F3D16C
:10457000026802F1140353E8003F23F001031432F0
:1045800042E800310029F3D1036B012B05D0202331
:1045900080F84230002303637047026802F10C0385
:1045A00053E8003F23F010030C3242E800310029A9
:1045B000F3D1ECE790F84130DBB2212B01D002209F
:1045C00070478368B3F5805F17D0036A5A1C026294
:1045D0001A7803685A60C38C9BB2013B9BB2C384B8
:1045E0004BB90268D36823F08003D3600268D368B4
:1045F00043F04003D360002070470369002BE4D1EF
:10460000036A1B880268C3F308035360036A02331A
:104610000362E0E710B504460268136923F44053CF
:10462000C1680B431361836802691A4343691A43E3
:10463000C3691A430168CB6823F4164323F00C03C3
:104640001343CB600268536923F4407381690B43C1
:1046500053610368354A93420ED002F5806293425B
:104660000AD002F58062934206D002F5806293423E
:1046700002D0FFF7AFF801E0FFF7BCF8E369B3F54C
:10468000004F29D00021031849411B1841F10001B6
:10469000C90041EA5371DB00181863684FEA8302CE
:1046A0004FEA937341F10001FCF7D8FA204AA2FBCC
:1046B00000314909642303FB11031B013233A2FBC0
:1046C00003235B0903F0F00202EB011203F00F0376
:1046D000216813448B6010BD0023021843EB0301D3
:1046E000121841F10001C90041EA5271D2001018BC
:1046F00041F10001626892185B41FCF7AFFA0C4A85
:10470000A2FB00314909642303FB1103DB003233B0
:10471000A2FB03235B095A0002F4F87202EB0112B8
:1047200003F00703216813448B60D4E700100140B5
:104730001F85EB5160B310B5044690F8413013B3B8
:10474000242384F841302268D36823F40053D360D3
:104750002046FFF75FFF2268136923F4904313613B
:104760002268536923F02A0353612268D36843F413
:104770000053D36000206064202384F8413084F823
:104780004230606310BD80F84030FEF7A9F8D7E7EB
:104790000120704738B5134690F84120D2B2202A44
:1047A0002FD1044600292ED00BB9012038BD01625B
:1047B0008384C38400224264212084F84100A06BDA
:1047C000124DC563A06B124D0564A06B114DC564FD
:1047D000A06B026522680432A06BFEF7B5FB23686C
:1047E0006FF040021A60226802F1140353E8003FA0
:1047F00043F08003143242E800310029F3D1002055
:10480000D4E70220D2E70120D0E700BF1B48000810
:104810008348000891480008704708B50346806B3C
:104820001B681B6813F4807F1AD10023C3840268BD
:1048300002F1140353E8003F23F08003143242E8EE
:1048400000310029F3D1026802F10C0353E8003F64
:1048500043F040030C3242E800310029F3D108BD97
:10486000FFF7DAFFFBE708B50168CA6822F04002EB
:10487000CA60202280F84120FFF7CEFF002008BD4B
:10488000704708B5806BFFF7FBFF08BD70477047A6
:1048900010B5846B23685A6994F84130DBB2212B40
:1048A00010D023685A6902F0400294F84230DBB21B
:1048B000222B11D0636C43F0100363642046FFF792
:1048C000E6FF10BD02F08002002AEAD00023E38454
:1048D0002046FFF731FEE4E7002AEBD00023E38512
:1048E0002046FFF739FEE5E708B5806B0023C38556
:1048F000C384FFF7CCFF08BD704790F84230DBB2AD
:10490000222B69D18368B3F5805F4FD0826AB3F5FB
:10491000805F04D0002B56D10369002B53D103686C
:104920005B681370836A01338362C38D9BB2013B62
:104930009BB2C385002B51D100B583B00268D36808
:1049400023F02003D3600268D36823F48073D3601C
:104950000268536923F001035361202380F8423039
:1049600000234363036B012B33D1002303630268ED
:1049700002F10C0353E8003F23F010030C3242E82D
:1049800000310029F3D103681A6812F0100F06D025
:10499000002201921A6801925B680193019B818D4C
:1049A000FFF7AAFF002003B05DF804FB0269002AAC
:1049B000ACD1826A03685B68C3F308031380836A1F
:1049C00002338362B1E703685B6803F07F0313700F
:1049D000A8E7FDF7E7FDE5E70220704700207047F4
:1049E00010B582B0044602681368D068516913F0AC
:1049F0000F0F09D113F0200F0CD010F0200F09D0A9
:104A00002046FFF77AFF16E011F0010115D110F4EE
:104A1000907F12D1216B012979D013F0800F03D040
:104A200010F0800F40F0148113F0400F03D010F00D
:104A3000400F40F0118102B010BD13F0010F06D0FD
:104A400010F4807F03D0626C42F00102626413F0C4
:104A5000040F04D019B1626C42F00202626413F0D8
:104A6000020F04D019B1626C42F00402626413F0C8
:104A7000080F07D010F0200F00D119B1626C42F07E
:104A800008026264626C002AD5D013F0200F02D0B5
:104A900010F0200F29D123685B6903F04003626C9A
:104AA00012F0080F00D163B32046FFF755FD2368CD
:104AB0005B6913F0400F20D0226802F1140353E821
:104AC000003F23F04003143242E800310029F3D1C3
:104AD000E36B73B1624A1A65E06BFEF7B4FA002823
:104AE000A9D0E06B036D9847A5E72046FFF705FFC7
:104AF000D1E72046FFF7CBFE9DE72046FFF7C7FE34
:104B000099E72046FFF7C3FE0023636493E713F0A1
:104B1000100F82D010F0100F3FF47FAF00230193ED
:104B20001368019353680193019B536913F0400F7D
:104B300052D0E26B13685B689BB2002B3FF47BAFF3
:104B4000A18D99427FF677AFE385D369B3F5807F76
:104B500037D0226802F10C0353E8003F23F480733E
:104B60000C3242E800310029F3D1226802F114032B
:104B700053E8003F23F00103143242E800310029DA
:104B8000F3D1226802F1140353E8003F23F04003FD
:104B9000143242E800310029F3D1202384F8423056
:104BA00000232363226802F10C0353E8003F23F043
:104BB00010030C3242E800310029F3D1E06BFEF71C
:104BC000F8F902236363A18DE38D9BB2C91A89B200
:104BD0002046FFF791FE2EE7A18DE38D9BB2C91A07
:104BE00089B2E38D9BB2002B3FF425AF00293FF43F
:104BF00022AF226802F10C0353E8003F23F49073C4
:104C00000C3242E800300028F3D1226802F114038C
:104C100053E8003F23F00103143242E8003000283B
:104C2000F3D1202384F8423000232363226802F169
:104C30000C0353E8003F23F010030C3242E800302D
:104C40000028F3D1022363632046FFF755FEF2E606
:104C50002046FFF7AFFCEEE62046FFF704FEEAE64B
:104C6000E948000808B5806B01234363036B012BFF
:104C700002D0FFF70BFE08BD818D4908FFF73CFE0F
:104C8000F9E708B50346806B1B681B6813F4807F47
:104C90002BD10023C385026802F10C0353E8003FC7
:104CA00023F480730C3242E800310029F3D102680A
:104CB00002F1140353E8003F23F00103143242E8E9
:104CC00000310029F3D1026802F1140353E8003FD8
:104CD00023F04003143242E800310029F3D12023AD
:104CE00080F84230036B012B07D000234363036B32
:104CF000012B0FD0FDF756FC08BD026802F10C0332
:104D000053E8003F23F010030C3242E80031002941
:104D1000F3D1EAE7818DFFF7EFFDEDE730B583B022
:104D2000044613468162828500254564222280F86C
:104D30004220C26B1F48D063E26B1F481064E26BD5
:104D40001E48D064E26B156520680A46011DE06BC1
:104D5000FEF7FAF8019523681A6801925B680193DF
:104D6000019B23695BB1226802F10C0353E8003F09
:104D700043F480730C3242E800310029F3D12268F9
:104D800002F1140353E8003F43F00103143242E8F8
:104D900000310029F3D1226802F1140353E8003FE7
:104DA00043F04003143242E800310029F3D10020DF
:104DB00003B030BD834C0008654C000891480008E2
:104DC00008B590F84230DBB2202B08D149B10AB9BE
:104DD000012008BD00230363FFF7A0FFF9E70220CD
:104DE000F7E70120F5E782B000230193019B01332F
:104DF0000193019BB3F1706F15D80369002BF5DAAD
:104E000000230193036943F001030361019B013314
:104E10000193019BB3F1706F08D8036913F0010F80
:104E2000F4D1002000E0032002B070470320FBE72C
:104E300084B010B5044603A880E80E009DF8113038
:104E4000012B21D1A36B23F48033A363E36823F404
:104E5000840323F04003E360E36823F44013E3603A
:104E60009DF81830012B0AD02046FFF7BCFF9DF8B3
:104E70000E30012B1CD0BDE8104004B07047E36831
:104E800043F48013E360EFE7E36843F04003E3603B
:104E90002046FFF7A8FF9DF8153023B9A36B43F414
:104EA0008033A363E3E7A36B23F48033A363DEE7DC
:104EB000A36843F00603A360A36843F02003A36044
:104EC000D9E7836823F0010383600020704782B034
:104ED00000230193019B01330193019BB3F1706F98
:104EE00015D80369002BF5DA00230193890141F0FD
:104EF00020010161019B01330193019BB3F1706FAC
:104F000008D8036913F0200FF4D1002000E003203B
:104F100002B070470320FBE782B000230193019B9E
:104F200001330193019BB3F1706F13D80369002B18
:104F3000F5DA0023019310230361019B01330193F0
:104F4000019BB3F1706F08D8036913F0100FF4D10F
:104F5000002000E0032002B070470320FBE7D0F8F8
:104F600000381943C0F800180020704784B0F8B525
:104F7000044607A880E80E00002306E003F1400283
:104F800004EB82020021516001330E2BF6D99DF80B
:104F9000266006BBD4F8043843F00203C4F8043892
:104FA000A36B23F40013A363236843F0400323603F
:104FB000236843F0800323600023C4F8003E9DF87B
:104FC0002130012B11D19DF81F304BB90021204613
:104FD000FFF7C5FF0DE0A36B43F40013A363EBE7FA
:104FE00001212046FFF7BBFF03E003212046FFF726
:104FF000B6FF10212046FFF76AFF054600B10125E4
:105000002046FFF789FF00B1012504F5006C00235D
:10501000CCF81030CCF81430CCF81C300AE0CBB906
:105020004FF00060C2F8000900220A614FF67F329B
:105030008A6001339DF81C10994210D904EB431289
:1050400002F51061D2F800090028E8DB0020C2F860
:105050000009E9E74FF09040C2F80009E4E70023B7
:105060000AE0BBB14FF09047C2F8007B002202611A
:105070004FF67F3282600133994210D904EB43121C
:1050800002F53060D2F8007B002FEADB0027C2F87F
:10509000007BEBE74FF00067C2F8007BE6E7DCF847
:1050A000103023F48073CCF810300023A3616FF02C
:1050B000804363619DF81E301BB9A36943F0100360
:1050C000A361A2690B4B1343A3619DF822301BB16E
:1050D000A36943F00803A361012E04D02846BDE86C
:1050E000F84004B07047A36943F0804343F00403E1
:1050F000A361F3E700383C80D0F8003E23F00303BF
:10510000C0F8003ED0F8043843F00203C0F8043879
:1051100000207047406900F00100704738B505462F
:10512000C36823F0C043C360012913D019BBC3680F
:1051300043F08043C36000240A20FDF78BFD0A344E
:105140002846FFF7E7FF08B1C72CF5D9C82C14D0C3
:10515000002038BDC36843F00053C36000240A2018
:10516000FDF778FD0A342846FFF7D4FF0128EDD07B
:10517000C72CF4D9EAE70120EBE70120E9E70000BA
:10518000DFF834D0FDF706FD0C480D490D4A002329
:1051900002E0D458C4500433C4188C42F9D30A4AEC
:1051A0000A4C002301E013600432A242FBD300F05A
:1051B000DDFFFDF7C5F87047000005200000002066
:1051C000FC010020604F0108FC0100204CCD0120B3
:1051D000FEE7002100F004BE70B504460D4645EC24
:1051E000104B164601F0B0FF51EC100B7EB1C5F329
:1051F0000A53C3F16B03002B09DD1B0503F17F5537
:10520000002405F5401522462B46FBF7F5F941EC45
:10521000100B70BD000000002DE9F04F9FB00C4650
:10522000179200221A9205904FF0000A4FF0000BDF
:105230000A46199211782B294AD038D80D2932D82C
:10524000082932D800293BD000220E92199D2A78D5
:10525000302A40F0B2806A7802F0DF02582A6ED11C
:1052600002930E9B01931AAB00938F4A05981BABD8
:1052700019A901F06BF810F00F06044605D0062EB0
:1052800028D10135002319950E93179B002B40F070
:105290008E850E9BCBB152460BF1004343EC102B95
:1052A0001FB0BDE8F08F2029CED10132C1E72D29F2
:1052B000CAD101210E91511C19915278002AC5D1F1
:1052C000179B1994002B40F0708552465B46E5E72A
:1052D0000021EFE71A9A3AB135211CA802F04CF8E8
:1052E0001A99059801F004FC013E1B9A042E06D879
:1052F000DFE806F014031D201400DDE91CABE10516
:1053000048BF4BF0004B2BF000431B0D1B05002B3F
:10531000BBD100F025FF22230360B6E7DDE91CA323
:1053200002F2334223F4801343EA025BE7E7DFF83B
:1053300080B1E4E76FF0004B4FF0FF3ADFE7199BD5
:105340005A1C19925B78302BF9D0002B9DD0012389
:1053500000270893199B0C930B97B9460A221998BA
:105360000578A5F13003D9B2092928D94F4901227E
:1053700000F09DFE002832D000202A460A904D46BB
:105380000346652A01D0452A14D11DB9089A024363
:1053900096D00025199C621C199262782B2A7AD02B
:1053A0002D2A7ED04FF0000CA2F13001092940F2E5
:1053B000858019944FF00008A5E00023C8E7B9F1F3
:1053C000080FD8BF0B9900F10100DABF02FB0133CF
:1053D0000B9302FB073709F101091990BFE7199BED
:1053E0005A1C19925A78B9F1000F3BD00A904D46D9
:1053F000A2F13003092B12D90123C2E7199B5A1CD1
:1054000019925A780130302AF8D0A2F13103082BD2
:1054100000F2D284199B0A9000200C930546303A82
:1054200000F1010318D00A9919440A912E464FF051
:105430000A0E711CA1EB050C634515DC20EAE07037
:105440002B18082B05F1010505441ADC0B990A23DA
:1054500003FB01230B930023199A511C19915278D5
:105460001846C5E74846CEE7082E05DC0B9E0EFB26
:1054700006F60B960E46DCE71029D8BF0EFB07F7A1
:10548000F8E70F2BDCBF0A2303FB0727E3E7002322
:105490000A9301237AE74FF0000CA21C1992A2781C
:1054A00082E74FF0010CF8E7344B0108D8480108B7
:1054B0000000F07F199A511C19915278302AF9D0C6
:1054C000A2F1310108293FF675AF303A0992199AD5
:1054D0000F924FF00A08199A561C19965278A2F1A9
:1054E000300EBEF1090F39D90F99761A082E44F6FD
:1054F0001F6803DC09998845A8BF8846BCF1000FE6
:1055000001D0C8F10008002D4ED1089901437FF465
:10551000BCAE002B7FF4D4AE692A28D025DC492A02
:1055200025D04E2A7FF4CCAE9A4919A801F030F963
:1055300000283FF4C5AE199B1B78282B2ED1964925
:105540001CAA19A801F038F9052827D11D9BDDF800
:1055500070A043F0FF4B4BF4E00B96E6099908FB73
:105560000121A1F130020992B5E76E2ADAE78B49F1
:1055700019A801F00DF900283FF4A2AE199B884943
:10558000013B19A8199301F003F910B9199B0133D4
:105590001993DFF81CB24FF0000A76E6814800F05C
:1055A0001BFE5BEC10AB70E60A9B0B98A8EB0303A9
:1055B000B9F1000F08BFA946102D09932C46A8BFCA
:1055C0001024FAF79FFF092D82468B4613DC099BB6
:1055D000002B3FF45AAE099B78DD162B5FDC724935
:1055E00001EBC301D1E9000152465B46FBF704F829
:1055F00082468B4649E66C4B03EBC40353E9122306
:10560000FAF7FAFF824638468B46FAF77BFF0246E6
:105610000B4650465946FAF739FE0F2D82468B4607
:10562000D5DD099B2C1B1C44002C40F3938014F007
:105630000F030AD05C4901EBC30152465B46D1E936
:105640000001FAF7D9FF82468B4634F00F0473D07D
:10565000B4F59A7F49DD0024A0460B94A146059A33
:10566000DFF84CB1222313604FF0000A0B9B002B94
:105670003FF40BAE1A99059801F03AFA059849469D
:1056800001F036FA0598414601F032FA0B99059877
:1056900001F02EFA0598214601F02AFAF5E5099A5B
:1056A000C5F125039342BCDB3F4CC5F10F0504EB6C
:1056B000C50152465B46D1E90001FAF79DFF099BFF
:1056C0005D1B04EBC504D4E900238FE71633A8DB88
:1056D0000A9BA3EB0808344B03EBC808D8E9002366
:1056E00050465946FBF7B2F882E700232F4F2411AA
:1056F000504659461E46012C21DC0BB182468B4692
:105700002A49ABF1547B01EBC60152465B46D1E915
:105710000001FAF771FF264B0A460B4025498B42E0
:10572000824698D8A1F580118B4286BFDFF888B0F9
:105730004FF0FF3A02F1547B0023089376E0E20732
:1057400004D5D7E90023FAF757FF01230136641087
:105750000837D0E7F0D0644214F00F020AD0124BA1
:1057600003EBC20350465946D3E90023FBF76EF81A
:1057700082468B462411DFD01F2C1FDD0024A0465B
:105780000B94A146059A22234FF0000A4FF0000B1C
:1057900013606BE7DD480108204B0108DA48010877
:1057A0008F4A01088B4A0108A84B0108804B010869
:1057B0000000F07F0000A07CFFFFEF7F14F01003DB
:1057C00018BF6A23A94E0893504659460023E7079D
:1057D00004D5D6E90023FAF70FFF0123641006F180
:1057E0000806F4D10BB182468B46089BB3B1CBF3CC
:1057F0000A52C2F16B03002B59460FDD1F2B56DDF9
:10580000342BDEBF4FF0FF33C2F14B0293404FF019
:10581000000ACCBF4FF05C7B03EA010B002200239F
:1058200050465946FBF750F90028A7D10B9B00932F
:105830000C9905982B464A4601F0C2F90B900028B6
:105840003FF409AF099A0A9B002AA3EB0803A8BFFB
:1058500000231293002422EAE2731693A0460B9BC6
:105860000598596801F004F9814600283FF4F7AE25
:105870000B9B1A69023203F10C0192000C3000F00C
:105880009CFC4BEC10AB05981CAA1BA9CDE90CABFA
:1058900001F0CAFC1A9000283FF4E1AE05980121FE
:1058A00001F024FA804648B94FF00008D7E64FF0DF
:1058B000FF3202FA03F303EA0A0AAFE71B9D1C9AC0
:1058C000002DABBF129B169B169E129FACBFEF180C
:1058D0005E1B089BED1A1544654B013D9D42C2F1CC
:1058E000360250DA5B1B1F2BA2EB03024FF00101C3
:1058F0003DDC01FA03F3139300231093BD18089BBA
:10590000AF4216441E443B46A8BF2B46B342A8BF35
:105910003346002BC2BFED1AF61AFF1A129B002B5A
:1059200016DD414605981A4601F098FA804600288F
:10593000BAD001461A9A059801F0EEF90A900028AB
:105940003FF48DAE1A99059801F0D2F80A9B1A938C
:10595000002D1DDC099B002B23DD4946169A059876
:1059600001F07CFA8146E0B94FF0000977E6C5F115
:105970007F4505F57F0505F57B45E23501FA05F321
:1059800010931391BAE70023109301231393B5E703
:105990001A9905982A4601F0BBFA1A900028D9D125
:1059A0005DE6002E07DD49460598324601F0B0FA63
:1059B00081460028D8D0002F08DD414605983A4698
:1059C00001F0A6FA804600283FF449AE1A990598DE
:1059D0004A4601F025FB044600283FF440AEC36868
:1059E0000F930023C360414601F0FEFA002845DA18
:1059F0000F9B53EA0A036BD1CBF31303002B67D140
:105A00002BF000431B0D1B05B3F1D66F60D9636902
:105A100013B92369012B5BDD21460122059801F0B2
:105A200077FA4146044601F0DFFA002850DD2BF0FA
:105A30000043089A1B0D1B05002A6AD0B3F1D66FEC
:105A400067D8B3F15C7F7FF69DAE0A4B504659464E
:105A50000022FAF7D1FD084B0B4082468B46002B03
:105A60007FF408AE059A2223136003E6484B010831
:105A700002FCFFFF000050390000F07FCDF828B095
:105A800065D10F9ACBF313035AB39F4A93422BD19C
:105A9000089B514603B39D4B5A461340B3F1D46F54
:105AA0004FF0FF321BD81B0DC3F16B0302FA03F357
:105AB000994219D1964B0A9A9A4202D101313FF488
:105AC000CEAD924B0A9A1A4002F5801B4FF0000AA5
:105AD000089B002BB9D1CDE54FF0FF33E8E7134623
